{"contracts/ProposalFactory.sol":{"ProposalFactory":{"abi":[{"inputs":[{"internalType":"address","name":"_verifier","type":"address"}],"stateMutability":"nonpayable","type":"constructor"},{"anonymous":false,"inputs":[{"indexed":true,"internalType":"address","name":"proposalAddress","type":"address"},{"indexed":false,"internalType":"string","name":"title","type":"string"},{"indexed":true,"internalType":"address","name":"creator","type":"address"}],"name":"ProposalCreated","type":"event"},{"inputs":[],"name":"VOTING_PERIOD","outputs":[{"internalType":"uint256","name":"","type":"uint256"}],"stateMutability":"view","type":"function"},{"inputs":[{"internalType":"string","name":"title","type":"string"},{"internalType":"string","name":"description","type":"string"}],"name":"createProposal","outputs":[{"internalType":"address","name":"","type":"address"}],"stateMutability":"nonpayable","type":"function"},{"inputs":[],"name":"getProposalCount","outputs":[{"internalType":"uint256","name":"","type":"uint256"}],"stateMutability":"view","type":"function"},{"inputs":[],"name":"getProposals","outputs":[{"components":[{"internalType":"address","name":"proposalAddress","type":"address"},{"internalType":"string","name":"title","type":"string"},{"internalType":"uint256","name":"timestamp","type":"uint256"},{"internalType":"address","name":"creator","type":"address"}],"internalType":"struct ProposalFactory.ProposalInfo[]","name":"","type":"tuple[]"}],"stateMutability":"view","type":"function"},{"inputs":[{"internalType":"uint256","name":"","type":"uint256"}],"name":"proposals","outputs":[{"internalType":"address","name":"proposalAddress","type":"address"},{"internalType":"string","name":"title","type":"string"},{"internalType":"uint256","name":"timestamp","type":"uint256"},{"internalType":"address","name":"creator","type":"address"}],"stateMutability":"view","type":"function"},{"inputs":[],"name":"verifier","outputs":[{"internalType":"address","name":"","type":"address"}],"stateMutability":"view","type":"function"}],"evm":{"bytecode":{"linkReferences":{},"object":"60a060405234801561001057600080fd5b506040516115fd3803806115fd83398101604081905261002f91610040565b6001600160a01b0316608052610070565b60006020828403121561005257600080fd5b81516001600160a01b038116811461006957600080fd5b9392505050565b60805161156c6100916000396000818160a70152610351015261156c6000f3fe60806040523480156200001157600080fd5b50600436106200006a5760003560e01c8063013cf08b146200006f5780632b7ac3f314620000a157806362564c4814620000e257806365e481e214620000fb578063b1610d7e1462000112578063c08cc02d146200012c575b600080fd5b6200008662000080366004620004e2565b62000135565b60405162000098949392919062000544565b60405180910390f35b620000c97f000000000000000000000000000000000000000000000000000000000000000081565b6040516001600160a01b03909116815260200162000098565b620000ec62000216565b60405162000098919062000581565b620000c96200010c366004620006cd565b6200034a565b6200011d62093a8081565b60405190815260200162000098565b6000546200011d565b600081815481106200014657600080fd5b6000918252602090912060049091020180546001820180546001600160a01b03909216935090620001779062000738565b80601f0160208091040260200160405190810160405280929190818152602001828054620001a59062000738565b8015620001f65780601f10620001ca57610100808354040283529160200191620001f6565b820191906000526020600020905b815481529060010190602001808311620001d857829003601f168201915b5050505060028301546003909301549192916001600160a01b0316905084565b60606000805480602002602001604051908101604052809291908181526020016000905b828210156200034157600084815260209081902060408051608081019091526004850290910180546001600160a01b031682526001810180549293919291840191620002869062000738565b80601f0160208091040260200160405190810160405280929190818152602001828054620002b49062000738565b8015620003055780601f10620002d95761010080835404028352916020019162000305565b820191906000526020600020905b815481529060010190602001808311620002e757829003601f168201915b505050918352505060028201546020808301919091526003909201546001600160a01b031660409091015290825260019290920191016200023a565b50505050905090565b60008083837f000000000000000000000000000000000000000000000000000000000000000062093a806040516200038290620004d4565b62000391949392919062000774565b604051809103906000f080158015620003ae573d6000803e3d6000fd5b50604080516080810182526001600160a01b0383811682526020820188815242938301939093523360608301526000805460018101825590805282517f290decd9548b62a8d60345a988386fc84ba6bc95484008f6362f93160ef3e563600490920291820180546001600160a01b031916919093161782559251939450909290917f290decd9548b62a8d60345a988386fc84ba6bc95484008f6362f93160ef3e56401906200045e90826200080d565b506040828101516002830155606090920151600390910180546001600160a01b0319166001600160a01b03928316179055905133918316907f13697ed522084dcf4fd56d3c72e69d3323b9d38e587644989e7299c3dcd6b5d590620004c5908890620008da565b60405180910390a39392505050565b610c4080620008f783390190565b600060208284031215620004f557600080fd5b5035919050565b6000815180845260005b81811015620005245760208185018101518683018201520162000506565b506000602082860101526020601f19601f83011685010191505092915050565b600060018060a01b03808716835260806020840152620005686080840187620004fc565b6040840195909552929092166060909101525092915050565b60006020808301818452808551808352604092508286019150828160051b87010184880160005b838110156200061457888303603f19018552815180516001600160a01b0390811685528882015160808a87018190529190620005e783880182620004fc565b848b0151888c015260609485015190921693909601929092525094870194925090860190600101620005a8565b509098975050505050505050565b634e487b7160e01b600052604160045260246000fd5b600082601f8301126200064a57600080fd5b813567ffffffffffffffff8082111562000668576200066862000622565b604051601f8301601f19908116603f0116810190828211818310171562000693576200069362000622565b81604052838152866020858801011115620006ad57600080fd5b836020870160208301376000602085830101528094505050505092915050565b60008060408385031215620006e157600080fd5b823567ffffffffffffffff80821115620006fa57600080fd5b620007088683870162000638565b935060208501359150808211156200071f57600080fd5b506200072e8582860162000638565b9150509250929050565b600181811c908216806200074d57607f821691505b6020821081036200076e57634e487b7160e01b600052602260045260246000fd5b50919050565b608081526000620007896080830187620004fc565b82810360208401526200079d8187620004fc565b6001600160a01b0395909516604084015250506060015292915050565b601f8211156200080857600081815260208120601f850160051c81016020861015620007e35750805b601f850160051c820191505b818110156200080457828155600101620007ef565b5050505b505050565b815167ffffffffffffffff8111156200082a576200082a62000622565b62000842816200083b845462000738565b84620007ba565b602080601f8311600181146200087a5760008415620008615750858301515b600019600386901b1c1916600185901b17855562000804565b600085815260208120601f198616915b82811015620008ab578886015182559484019460019091019084016200088a565b5085821015620008ca5787850151600019600388901b60f8161c191681555b5050505050600190811b01905550565b602081526000620008ef6020830184620004fc565b939250505056fe60a06040523480156200001157600080fd5b5060405162000c4038038062000c4083398101604081905262000034916200013e565b600062000042858262000260565b50600162000051848262000260565b506001600160a01b0382166080526200006b81426200032c565b600455506200035492505050565b634e487b7160e01b600052604160045260246000fd5b600082601f830112620000a157600080fd5b81516001600160401b0380821115620000be57620000be62000079565b604051601f8301601f19908116603f01168101908282118183101715620000e957620000e962000079565b816040528381526020925086838588010111156200010657600080fd5b600091505b838210156200012a57858201830151818301840152908201906200010b565b600093810190920192909252949350505050565b600080600080608085870312156200015557600080fd5b84516001600160401b03808211156200016d57600080fd5b6200017b888389016200008f565b955060208701519150808211156200019257600080fd5b50620001a1878288016200008f565b604087015190945090506001600160a01b0381168114620001c157600080fd5b6060959095015193969295505050565b600181811c90821680620001e657607f821691505b6020821081036200020757634e487b7160e01b600052602260045260246000fd5b50919050565b601f8211156200025b57600081815260208120601f850160051c81016020861015620002365750805b601f850160051c820191505b81811015620002575782815560010162000242565b5050505b505050565b81516001600160401b038111156200027c576200027c62000079565b62000294816200028d8454620001d1565b846200020d565b602080601f831160018114620002cc5760008415620002b35750858301515b600019600386901b1c1916600185901b17855562000257565b600085815260208120601f198616915b82811015620002fd57888601518255948401946001909101908401620002dc565b50858210156200031c5787850151600019600388901b60f8161c191681555b5050505050600190811b01905550565b808201808211156200034e57634e487b7160e01b600052601160045260246000fd5b92915050565b6080516108c96200037760003960008181610107015261047201526108c96000f3fe608060405234801561001057600080fd5b50600436106100885760003560e01c80634bb278f31161005b5780634bb278f3146101565780637284e41614610160578063a7eea98b14610168578063c67ea7b5146101a357600080fd5b806317cc915c1461008d57806325dff9d1146100c55780632b7ac3f3146101025780634a79d50c14610141575b600080fd5b6100b061009b3660046105c8565b60066020526000908152604090205460ff1681565b60405190151581526020015b60405180910390f35b6100cd6101b6565b6040516100bc919081518152602080830151908201526040808301519082015260609182015115159181019190915260800190565b6101297f000000000000000000000000000000000000000000000000000000000000000081565b6040516001600160a01b0390911681526020016100bc565b610149610215565b6040516100bc91906105e1565b61015e6102a3565b005b610149610395565b6002546003546004546005546101819392919060ff1684565b60408051948552602085019390935291830152151560608201526080016100bc565b61015e6101b13660046106b6565b6103a2565b6101e360405180608001604052806000815260200160008152602001600081526020016000151581525090565b5060408051608081018252600254815260035460208201526004549181019190915260055460ff161515606082015290565b6000805461022290610757565b80601f016020809104026020016040519081016040528092919081815260200182805461024e90610757565b801561029b5780601f106102705761010080835404028352916020019161029b565b820191906000526020600020905b81548152906001019060200180831161027e57829003601f168201915b505050505081565b6004544210156102fa5760405162461bcd60e51b815260206004820152601760248201527f566f74696e6720706572696f64206e6f7420656e64656400000000000000000060448201526064015b60405180910390fd5b60055460ff16156103415760405162461bcd60e51b8152602060048201526011602482015270105b1c9958591e48199a5b985b1a5e9959607a1b60448201526064016102f1565b6005805460ff191660011790556002546003546040517f7701dba108504636e1c3edeae33d8c8894d878b94ace52c051e49cb5aeb0fe059261038b92908252602082015260400190565b60405180910390a1565b6001805461022290610757565b60045442106103f35760405162461bcd60e51b815260206004820152601760248201527f566f74696e6720706572696f642068617320656e64656400000000000000000060448201526064016102f1565b60008181526006602052604090205460ff16156104465760405162461bcd60e51b8152602060048201526011602482015270159bdd1948185b1c9958591e4818d85cdd607a1b60448201526064016102f1565b604080518082018252838152602081018390529051637ae4eb4f60e11b81526000916001600160a01b037f0000000000000000000000000000000000000000000000000000000000000000169163f5c9d69e916104ac918a918a918a91906004016107ba565b602060405180830381865afa1580156104c9573d6000803e3d6000fd5b505050506040513d601f19601f820116820180604052508101906104ed9190610821565b90508061052c5760405162461bcd60e51b815260206004820152600d60248201526c24b73b30b634b210383937b7b360991b60448201526064016102f1565b6000828152600660205260409020805460ff1916600117905561055060028461084a565b60000361057157600280549060006105678361086c565b9190505550610587565b600380549060006105818361086c565b91905055505b60408051838152602081018590527f98feb77d0a18cb15f50d444eb78ea1c0e7461c4c7c44c9df2a863f4af4ade56a910160405180910390a1505050505050565b6000602082840312156105da57600080fd5b5035919050565b600060208083528351808285015260005b8181101561060e578581018301518582016040015282016105f2565b506000604082860101526040601f19601f8301168501019250505092915050565b6040805190810167ffffffffffffffff8111828210171561066057634e487b7160e01b600052604160045260246000fd5b60405290565b600082601f83011261067757600080fd5b61067f61062f565b80604084018581111561069157600080fd5b845b818110156106ab578035845260209384019301610693565b509095945050505050565b600080600080600061014086880312156106cf57600080fd5b6106d98787610666565b9450604087605f8801126106ec57600080fd5b6106f461062f565b8060c089018a81111561070657600080fd5b838a015b8181101561072b5761071c8c82610666565b8452602090930192840161070a565b508197506107398b82610666565b989b979a509798610100810135985061012001359695505050505050565b600181811c9082168061076b57607f821691505b60208210810361078b57634e487b7160e01b600052602260045260246000fd5b50919050565b8060005b60028110156107b4578151845260209384019390910190600101610795565b50505050565b61014081016107c98287610791565b60408083018660005b60028110156107f9576107e6838351610791565b91830191602091909101906001016107d2565b5050505061080a60c0830185610791565b610818610100830184610791565b95945050505050565b60006020828403121561083357600080fd5b8151801515811461084357600080fd5b9392505050565b60008261086757634e487b7160e01b600052601260045260246000fd5b500690565b60006001820161088c57634e487b7160e01b600052601160045260246000fd5b506001019056fea2646970667358221220b83d7c351eb3f599abb3fd600bed4427f2351fc5fa7f5b9fb85e3bb079c7bda064736f6c63430008130033a2646970667358221220c06aab6e04166b1abf3b45a4e31f5833ee840f5a3133e8010a76c99dfa622cfd64736f6c63430008130033","opcodes":"PUSH1 0xA0 PUSH1 0x40 MSTORE CALLVALUE DUP1 ISZERO PUSH2 0x10 JUMPI PUSH1 0x0 DUP1 REVERT JUMPDEST POP PUSH1 0x40 MLOAD PUSH2 0x15FD CODESIZE SUB DUP1 PUSH2 0x15FD DUP4 CODECOPY DUP2 ADD PUSH1 0x40 DUP2 SWAP1 MSTORE PUSH2 0x2F SWAP2 PUSH2 0x40 JUMP JUMPDEST PUSH1 0x1 PUSH1 0x1 PUSH1 0xA0 SHL SUB AND PUSH1 0x80 MSTORE PUSH2 0x70 JUMP JUMPDEST PUSH1 0x0 PUSH1 0x20 DUP3 DUP5 SUB SLT ISZERO PUSH2 0x52 JUMPI PUSH1 0x0 DUP1 REVERT JUMPDEST DUP2 MLOAD PUSH1 0x1 PUSH1 0x1 PUSH1 0xA0 SHL SUB DUP2 AND DUP2 EQ PUSH2 0x69 JUMPI PUSH1 0x0 DUP1 REVERT JUMPDEST SWAP4 SWAP3 POP POP POP JUMP JUMPDEST PUSH1 0x80 MLOAD PUSH2 0x156C PUSH2 0x91 PUSH1 0x0 CODECOPY PUSH1 0x0 DUP2 DUP2 PUSH1 0xA7 ADD MSTORE PUSH2 0x351 ADD MSTORE PUSH2 0x156C PUSH1 0x0 RETURN INVALID PUSH1 0x80 PUSH1 0x40 MSTORE CALLVALUE DUP1 ISZERO PUSH3 0x11 JUMPI PUSH1 0x0 DUP1 REVERT JUMPDEST POP PUSH1 0x4 CALLDATASIZE LT PUSH3 0x6A JUMPI PUSH1 0x0 CALLDATALOAD PUSH1 0xE0 SHR DUP1 PUSH4 0x13CF08B EQ PUSH3 0x6F JUMPI DUP1 PUSH4 0x2B7AC3F3 EQ PUSH3 0xA1 JUMPI DUP1 PUSH4 0x62564C48 EQ PUSH3 0xE2 JUMPI DUP1 PUSH4 0x65E481E2 EQ PUSH3 0xFB JUMPI DUP1 PUSH4 0xB1610D7E EQ PUSH3 0x112 JUMPI DUP1 PUSH4 0xC08CC02D EQ PUSH3 0x12C JUMPI JUMPDEST PUSH1 0x0 DUP1 REVERT JUMPDEST PUSH3 0x86 PUSH3 0x80 CALLDATASIZE PUSH1 0x4 PUSH3 0x4E2 JUMP JUMPDEST PUSH3 0x135 JUMP JUMPDEST PUSH1 0x40 MLOAD PUSH3 0x98 SWAP5 SWAP4 SWAP3 SWAP2 SWAP1 PUSH3 0x544 JUMP JUMPDEST PUSH1 0x40 MLOAD DUP1 SWAP2 SUB SWAP1 RETURN JUMPDEST PUSH3 0xC9 PUSH32 0x0 DUP2 JUMP JUMPDEST PUSH1 0x40 MLOAD PUSH1 0x1 PUSH1 0x1 PUSH1 0xA0 SHL SUB SWAP1 SWAP2 AND DUP2 MSTORE PUSH1 0x20 ADD PUSH3 0x98 JUMP JUMPDEST PUSH3 0xEC PUSH3 0x216 JUMP JUMPDEST PUSH1 0x40 MLOAD PUSH3 0x98 SWAP2 SWAP1 PUSH3 0x581 JUMP JUMPDEST PUSH3 0xC9 PUSH3 0x10C CALLDATASIZE PUSH1 0x4 PUSH3 0x6CD JUMP JUMPDEST PUSH3 0x34A JUMP JUMPDEST PUSH3 0x11D PUSH3 0x93A80 DUP2 JUMP JUMPDEST PUSH1 0x40 MLOAD SWAP1 DUP2 MSTORE PUSH1 0x20 ADD PUSH3 0x98 JUMP JUMPDEST PUSH1 0x0 SLOAD PUSH3 0x11D JUMP JUMPDEST PUSH1 0x0 DUP2 DUP2 SLOAD DUP2 LT PUSH3 0x146 JUMPI PUSH1 0x0 DUP1 REVERT JUMPDEST PUSH1 0x0 SWAP2 DUP3 MSTORE PUSH1 0x20 SWAP1 SWAP2 KECCAK256 PUSH1 0x4 SWAP1 SWAP2 MUL ADD DUP1 SLOAD PUSH1 0x1 DUP3 ADD DUP1 SLOAD PUSH1 0x1 PUSH1 0x1 PUSH1 0xA0 SHL SUB SWAP1 SWAP3 AND SWAP4 POP SWAP1 PUSH3 0x177 SWAP1 PUSH3 0x738 JUMP JUMPDEST DUP1 PUSH1 0x1F ADD PUSH1 0x20 DUP1 SWAP2 DIV MUL PUSH1 0x20 ADD PUSH1 0x40 MLOAD SWAP1 DUP2 ADD PUSH1 0x40 MSTORE DUP1 SWAP3 SWAP2 SWAP1 DUP2 DUP2 MSTORE PUSH1 0x20 ADD DUP3 DUP1 SLOAD PUSH3 0x1A5 SWAP1 PUSH3 0x738 JUMP JUMPDEST DUP1 ISZERO PUSH3 0x1F6 JUMPI DUP1 PUSH1 0x1F LT PUSH3 0x1CA JUMPI PUSH2 0x100 DUP1 DUP4 SLOAD DIV MUL DUP4 MSTORE SWAP2 PUSH1 0x20 ADD SWAP2 PUSH3 0x1F6 JUMP JUMPDEST DUP3 ADD SWAP2 SWAP1 PUSH1 0x0 MSTORE PUSH1 0x20 PUSH1 0x0 KECCAK256 SWAP1 JUMPDEST DUP2 SLOAD DUP2 MSTORE SWAP1 PUSH1 0x1 ADD SWAP1 PUSH1 0x20 ADD DUP1 DUP4 GT PUSH3 0x1D8 JUMPI DUP3 SWAP1 SUB PUSH1 0x1F AND DUP3 ADD SWAP2 JUMPDEST POP POP POP POP PUSH1 0x2 DUP4 ADD SLOAD PUSH1 0x3 SWAP1 SWAP4 ADD SLOAD SWAP2 SWAP3 SWAP2 PUSH1 0x1 PUSH1 0x1 PUSH1 0xA0 SHL SUB AND SWAP1 POP DUP5 JUMP JUMPDEST PUSH1 0x60 PUSH1 0x0 DUP1 SLOAD DUP1 PUSH1 0x20 MUL PUSH1 0x20 ADD PUSH1 0x40 MLOAD SWAP1 DUP2 ADD PUSH1 0x40 MSTORE DUP1 SWAP3 SWAP2 SWAP1 DUP2 DUP2 MSTORE PUSH1 0x20 ADD PUSH1 0x0 SWAP1 JUMPDEST DUP3 DUP3 LT ISZERO PUSH3 0x341 JUMPI PUSH1 0x0 DUP5 DUP2 MSTORE PUSH1 0x20 SWAP1 DUP2 SWAP1 KECCAK256 PUSH1 0x40 DUP1 MLOAD PUSH1 0x80 DUP2 ADD SWAP1 SWAP2 MSTORE PUSH1 0x4 DUP6 MUL SWAP1 SWAP2 ADD DUP1 SLOAD PUSH1 0x1 PUSH1 0x1 PUSH1 0xA0 SHL SUB AND DUP3 MSTORE PUSH1 0x1 DUP2 ADD DUP1 SLOAD SWAP3 SWAP4 SWAP2 SWAP3 SWAP2 DUP5 ADD SWAP2 PUSH3 0x286 SWAP1 PUSH3 0x738 JUMP JUMPDEST DUP1 PUSH1 0x1F ADD PUSH1 0x20 DUP1 SWAP2 DIV MUL PUSH1 0x20 ADD PUSH1 0x40 MLOAD SWAP1 DUP2 ADD PUSH1 0x40 MSTORE DUP1 SWAP3 SWAP2 SWAP1 DUP2 DUP2 MSTORE PUSH1 0x20 ADD DUP3 DUP1 SLOAD PUSH3 0x2B4 SWAP1 PUSH3 0x738 JUMP JUMPDEST DUP1 ISZERO PUSH3 0x305 JUMPI DUP1 PUSH1 0x1F LT PUSH3 0x2D9 JUMPI PUSH2 0x100 DUP1 DUP4 SLOAD DIV MUL DUP4 MSTORE SWAP2 PUSH1 0x20 ADD SWAP2 PUSH3 0x305 JUMP JUMPDEST DUP3 ADD SWAP2 SWAP1 PUSH1 0x0 MSTORE PUSH1 0x20 PUSH1 0x0 KECCAK256 SWAP1 JUMPDEST DUP2 SLOAD DUP2 MSTORE SWAP1 PUSH1 0x1 ADD SWAP1 PUSH1 0x20 ADD DUP1 DUP4 GT PUSH3 0x2E7 JUMPI DUP3 SWAP1 SUB PUSH1 0x1F AND DUP3 ADD SWAP2 JUMPDEST POP POP POP SWAP2 DUP4 MSTORE POP POP PUSH1 0x2 DUP3 ADD SLOAD PUSH1 0x20 DUP1 DUP4 ADD SWAP2 SWAP1 SWAP2 MSTORE PUSH1 0x3 SWAP1 SWAP3 ADD SLOAD PUSH1 0x1 PUSH1 0x1 PUSH1 0xA0 SHL SUB AND PUSH1 0x40 SWAP1 SWAP2 ADD MSTORE SWAP1 DUP3 MSTORE PUSH1 0x1 SWAP3 SWAP1 SWAP3 ADD SWAP2 ADD PUSH3 0x23A JUMP JUMPDEST POP POP POP POP SWAP1 POP SWAP1 JUMP JUMPDEST PUSH1 0x0 DUP1 DUP4 DUP4 PUSH32 0x0 PUSH3 0x93A80 PUSH1 0x40 MLOAD PUSH3 0x382 SWAP1 PUSH3 0x4D4 JUMP JUMPDEST PUSH3 0x391 SWAP5 SWAP4 SWAP3 SWAP2 SWAP1 PUSH3 0x774 JUMP JUMPDEST PUSH1 0x40 MLOAD DUP1 SWAP2 SUB SWAP1 PUSH1 0x0 CREATE DUP1 ISZERO DUP1 ISZERO PUSH3 0x3AE JUMPI RETURNDATASIZE PUSH1 0x0 DUP1 RETURNDATACOPY RETURNDATASIZE PUSH1 0x0 REVERT JUMPDEST POP PUSH1 0x40 DUP1 MLOAD PUSH1 0x80 DUP2 ADD DUP3 MSTORE PUSH1 0x1 PUSH1 0x1 PUSH1 0xA0 SHL SUB DUP4 DUP2 AND DUP3 MSTORE PUSH1 0x20 DUP3 ADD DUP9 DUP2 MSTORE TIMESTAMP SWAP4 DUP4 ADD SWAP4 SWAP1 SWAP4 MSTORE CALLER PUSH1 0x60 DUP4 ADD MSTORE PUSH1 0x0 DUP1 SLOAD PUSH1 0x1 DUP2 ADD DUP3 SSTORE SWAP1 DUP1 MSTORE DUP3 MLOAD PUSH32 0x290DECD9548B62A8D60345A988386FC84BA6BC95484008F6362F93160EF3E563 PUSH1 0x4 SWAP1 SWAP3 MUL SWAP2 DUP3 ADD DUP1 SLOAD PUSH1 0x1 PUSH1 0x1 PUSH1 0xA0 SHL SUB NOT AND SWAP2 SWAP1 SWAP4 AND OR DUP3 SSTORE SWAP3 MLOAD SWAP4 SWAP5 POP SWAP1 SWAP3 SWAP1 SWAP2 PUSH32 0x290DECD9548B62A8D60345A988386FC84BA6BC95484008F6362F93160EF3E564 ADD SWAP1 PUSH3 0x45E SWAP1 DUP3 PUSH3 0x80D JUMP JUMPDEST POP PUSH1 0x40 DUP3 DUP2 ADD MLOAD PUSH1 0x2 DUP4 ADD SSTORE PUSH1 0x60 SWAP1 SWAP3 ADD MLOAD PUSH1 0x3 SWAP1 SWAP2 ADD DUP1 SLOAD PUSH1 0x1 PUSH1 0x1 PUSH1 0xA0 SHL SUB NOT AND PUSH1 0x1 PUSH1 0x1 PUSH1 0xA0 SHL SUB SWAP3 DUP4 AND OR SWAP1 SSTORE SWAP1 MLOAD CALLER SWAP2 DUP4 AND SWAP1 PUSH32 0x13697ED522084DCF4FD56D3C72E69D3323B9D38E587644989E7299C3DCD6B5D5 SWAP1 PUSH3 0x4C5 SWAP1 DUP9 SWAP1 PUSH3 0x8DA JUMP JUMPDEST PUSH1 0x40 MLOAD DUP1 SWAP2 SUB SWAP1 LOG3 SWAP4 SWAP3 POP POP POP JUMP JUMPDEST PUSH2 0xC40 DUP1 PUSH3 0x8F7 DUP4 CODECOPY ADD SWAP1 JUMP JUMPDEST PUSH1 0x0 PUSH1 0x20 DUP3 DUP5 SUB SLT ISZERO PUSH3 0x4F5 JUMPI PUSH1 0x0 DUP1 REVERT JUMPDEST POP CALLDATALOAD SWAP2 SWAP1 POP JUMP JUMPDEST PUSH1 0x0 DUP2 MLOAD DUP1 DUP5 MSTORE PUSH1 0x0 JUMPDEST DUP2 DUP2 LT ISZERO PUSH3 0x524 JUMPI PUSH1 0x20 DUP2 DUP6 ADD DUP2 ADD MLOAD DUP7 DUP4 ADD DUP3 ADD MSTORE ADD PUSH3 0x506 JUMP JUMPDEST POP PUSH1 0x0 PUSH1 0x20 DUP3 DUP7 ADD ADD MSTORE PUSH1 0x20 PUSH1 0x1F NOT PUSH1 0x1F DUP4 ADD AND DUP6 ADD ADD SWAP2 POP POP SWAP3 SWAP2 POP POP JUMP JUMPDEST PUSH1 0x0 PUSH1 0x1 DUP1 PUSH1 0xA0 SHL SUB DUP1 DUP8 AND DUP4 MSTORE PUSH1 0x80 PUSH1 0x20 DUP5 ADD MSTORE PUSH3 0x568 PUSH1 0x80 DUP5 ADD DUP8 PUSH3 0x4FC JUMP JUMPDEST PUSH1 0x40 DUP5 ADD SWAP6 SWAP1 SWAP6 MSTORE SWAP3 SWAP1 SWAP3 AND PUSH1 0x60 SWAP1 SWAP2 ADD MSTORE POP SWAP3 SWAP2 POP POP JUMP JUMPDEST PUSH1 0x0 PUSH1 0x20 DUP1 DUP4 ADD DUP2 DUP5 MSTORE DUP1 DUP6 MLOAD DUP1 DUP4 MSTORE PUSH1 0x40 SWAP3 POP DUP3 DUP7 ADD SWAP2 POP DUP3 DUP2 PUSH1 0x5 SHL DUP8 ADD ADD DUP5 DUP9 ADD PUSH1 0x0 JUMPDEST DUP4 DUP2 LT ISZERO PUSH3 0x614 JUMPI DUP9 DUP4 SUB PUSH1 0x3F NOT ADD DUP6 MSTORE DUP2 MLOAD DUP1 MLOAD PUSH1 0x1 PUSH1 0x1 PUSH1 0xA0 SHL SUB SWAP1 DUP2 AND DUP6 MSTORE DUP9 DUP3 ADD MLOAD PUSH1 0x80 DUP11 DUP8 ADD DUP2 SWAP1 MSTORE SWAP2 SWAP1 PUSH3 0x5E7 DUP4 DUP9 ADD DUP3 PUSH3 0x4FC JUMP JUMPDEST DUP5 DUP12 ADD MLOAD DUP9 DUP13 ADD MSTORE PUSH1 0x60 SWAP5 DUP6 ADD MLOAD SWAP1 SWAP3 AND SWAP4 SWAP1 SWAP7 ADD SWAP3 SWAP1 SWAP3 MSTORE POP SWAP5 DUP8 ADD SWAP5 SWAP3 POP SWAP1 DUP7 ADD SWAP1 PUSH1 0x1 ADD PUSH3 0x5A8 JUMP JUMPDEST POP SWAP1 SWAP9 SWAP8 POP POP POP POP POP POP POP POP JUMP JUMPDEST PUSH4 0x4E487B71 PUSH1 0xE0 SHL PUSH1 0x0 MSTORE PUSH1 0x41 PUSH1 0x4 MSTORE PUSH1 0x24 PUSH1 0x0 REVERT JUMPDEST PUSH1 0x0 DUP3 PUSH1 0x1F DUP4 ADD SLT PUSH3 0x64A JUMPI PUSH1 0x0 DUP1 REVERT JUMPDEST DUP2 CALLDATALOAD PUSH8 0xFFFFFFFFFFFFFFFF DUP1 DUP3 GT ISZERO PUSH3 0x668 JUMPI PUSH3 0x668 PUSH3 0x622 JUMP JUMPDEST PUSH1 0x40 MLOAD PUSH1 0x1F DUP4 ADD PUSH1 0x1F NOT SWAP1 DUP2 AND PUSH1 0x3F ADD AND DUP2 ADD SWAP1 DUP3 DUP3 GT DUP2 DUP4 LT OR ISZERO PUSH3 0x693 JUMPI PUSH3 0x693 PUSH3 0x622 JUMP JUMPDEST DUP2 PUSH1 0x40 MSTORE DUP4 DUP2 MSTORE DUP7 PUSH1 0x20 DUP6 DUP9 ADD ADD GT ISZERO PUSH3 0x6AD JUMPI PUSH1 0x0 DUP1 REVERT JUMPDEST DUP4 PUSH1 0x20 DUP8 ADD PUSH1 0x20 DUP4 ADD CALLDATACOPY PUSH1 0x0 PUSH1 0x20 DUP6 DUP4 ADD ADD MSTORE DUP1 SWAP5 POP POP POP POP POP SWAP3 SWAP2 POP POP JUMP JUMPDEST PUSH1 0x0 DUP1 PUSH1 0x40 DUP4 DUP6 SUB SLT ISZERO PUSH3 0x6E1 JUMPI PUSH1 0x0 DUP1 REVERT JUMPDEST DUP3 CALLDATALOAD PUSH8 0xFFFFFFFFFFFFFFFF DUP1 DUP3 GT ISZERO PUSH3 0x6FA JUMPI PUSH1 0x0 DUP1 REVERT JUMPDEST PUSH3 0x708 DUP7 DUP4 DUP8 ADD PUSH3 0x638 JUMP JUMPDEST SWAP4 POP PUSH1 0x20 DUP6 ADD CALLDATALOAD SWAP2 POP DUP1 DUP3 GT ISZERO PUSH3 0x71F JUMPI PUSH1 0x0 DUP1 REVERT JUMPDEST POP PUSH3 0x72E DUP6 DUP3 DUP7 ADD PUSH3 0x638 JUMP JUMPDEST SWAP2 POP POP SWAP3 POP SWAP3 SWAP1 POP JUMP JUMPDEST PUSH1 0x1 DUP2 DUP2 SHR SWAP1 DUP3 AND DUP1 PUSH3 0x74D JUMPI PUSH1 0x7F DUP3 AND SWAP2 POP JUMPDEST PUSH1 0x20 DUP3 LT DUP2 SUB PUSH3 0x76E JUMPI PUSH4 0x4E487B71 PUSH1 0xE0 SHL PUSH1 0x0 MSTORE PUSH1 0x22 PUSH1 0x4 MSTORE PUSH1 0x24 PUSH1 0x0 REVERT JUMPDEST POP SWAP2 SWAP1 POP JUMP JUMPDEST PUSH1 0x80 DUP2 MSTORE PUSH1 0x0 PUSH3 0x789 PUSH1 0x80 DUP4 ADD DUP8 PUSH3 0x4FC JUMP JUMPDEST DUP3 DUP2 SUB PUSH1 0x20 DUP5 ADD MSTORE PUSH3 0x79D DUP2 DUP8 PUSH3 0x4FC JUMP JUMPDEST PUSH1 0x1 PUSH1 0x1 PUSH1 0xA0 SHL SUB SWAP6 SWAP1 SWAP6 AND PUSH1 0x40 DUP5 ADD MSTORE POP POP PUSH1 0x60 ADD MSTORE SWAP3 SWAP2 POP POP JUMP JUMPDEST PUSH1 0x1F DUP3 GT ISZERO PUSH3 0x808 JUMPI PUSH1 0x0 DUP2 DUP2 MSTORE PUSH1 0x20 DUP2 KECCAK256 PUSH1 0x1F DUP6 ADD PUSH1 0x5 SHR DUP2 ADD PUSH1 0x20 DUP7 LT ISZERO PUSH3 0x7E3 JUMPI POP DUP1 JUMPDEST PUSH1 0x1F DUP6 ADD PUSH1 0x5 SHR DUP3 ADD SWAP2 POP JUMPDEST DUP2 DUP2 LT ISZERO PUSH3 0x804 JUMPI DUP3 DUP2 SSTORE PUSH1 0x1 ADD PUSH3 0x7EF JUMP JUMPDEST POP POP POP JUMPDEST POP POP POP JUMP JUMPDEST DUP2 MLOAD PUSH8 0xFFFFFFFFFFFFFFFF DUP2 GT ISZERO PUSH3 0x82A JUMPI PUSH3 0x82A PUSH3 0x622 JUMP JUMPDEST PUSH3 0x842 DUP2 PUSH3 0x83B DUP5 SLOAD PUSH3 0x738 JUMP JUMPDEST DUP5 PUSH3 0x7BA JUMP JUMPDEST PUSH1 0x20 DUP1 PUSH1 0x1F DUP4 GT PUSH1 0x1 DUP2 EQ PUSH3 0x87A JUMPI PUSH1 0x0 DUP5 ISZERO PUSH3 0x861 JUMPI POP DUP6 DUP4 ADD MLOAD JUMPDEST PUSH1 0x0 NOT PUSH1 0x3 DUP7 SWAP1 SHL SHR NOT AND PUSH1 0x1 DUP6 SWAP1 SHL OR DUP6 SSTORE PUSH3 0x804 JUMP JUMPDEST PUSH1 0x0 DUP6 DUP2 MSTORE PUSH1 0x20 DUP2 KECCAK256 PUSH1 0x1F NOT DUP7 AND SWAP2 JUMPDEST DUP3 DUP2 LT ISZERO PUSH3 0x8AB JUMPI DUP9 DUP7 ADD MLOAD DUP3 SSTORE SWAP5 DUP5 ADD SWAP5 PUSH1 0x1 SWAP1 SWAP2 ADD SWAP1 DUP5 ADD PUSH3 0x88A JUMP JUMPDEST POP DUP6 DUP3 LT ISZERO PUSH3 0x8CA JUMPI DUP8 DUP6 ADD MLOAD PUSH1 0x0 NOT PUSH1 0x3 DUP9 SWAP1 SHL PUSH1 0xF8 AND SHR NOT AND DUP2 SSTORE JUMPDEST POP POP POP POP POP PUSH1 0x1 SWAP1 DUP2 SHL ADD SWAP1 SSTORE POP JUMP JUMPDEST PUSH1 0x20 DUP2 MSTORE PUSH1 0x0 PUSH3 0x8EF PUSH1 0x20 DUP4 ADD DUP5 PUSH3 0x4FC JUMP JUMPDEST SWAP4 SWAP3 POP POP POP JUMP INVALID PUSH1 0xA0 PUSH1 0x40 MSTORE CALLVALUE DUP1 ISZERO PUSH3 0x11 JUMPI PUSH1 0x0 DUP1 REVERT JUMPDEST POP PUSH1 0x40 MLOAD PUSH3 0xC40 CODESIZE SUB DUP1 PUSH3 0xC40 DUP4 CODECOPY DUP2 ADD PUSH1 0x40 DUP2 SWAP1 MSTORE PUSH3 0x34 SWAP2 PUSH3 0x13E JUMP JUMPDEST PUSH1 0x0 PUSH3 0x42 DUP6 DUP3 PUSH3 0x260 JUMP JUMPDEST POP PUSH1 0x1 PUSH3 0x51 DUP5 DUP3 PUSH3 0x260 JUMP JUMPDEST POP PUSH1 0x1 PUSH1 0x1 PUSH1 0xA0 SHL SUB DUP3 AND PUSH1 0x80 MSTORE PUSH3 0x6B DUP2 TIMESTAMP PUSH3 0x32C JUMP JUMPDEST PUSH1 0x4 SSTORE POP PUSH3 0x354 SWAP3 POP POP POP JUMP JUMPDEST PUSH4 0x4E487B71 PUSH1 0xE0 SHL PUSH1 0x0 MSTORE PUSH1 0x41 PUSH1 0x4 MSTORE PUSH1 0x24 PUSH1 0x0 REVERT JUMPDEST PUSH1 0x0 DUP3 PUSH1 0x1F DUP4 ADD SLT PUSH3 0xA1 JUMPI PUSH1 0x0 DUP1 REVERT JUMPDEST DUP2 MLOAD PUSH1 0x1 PUSH1 0x1 PUSH1 0x40 SHL SUB DUP1 DUP3 GT ISZERO PUSH3 0xBE JUMPI PUSH3 0xBE PUSH3 0x79 JUMP JUMPDEST PUSH1 0x40 MLOAD PUSH1 0x1F DUP4 ADD PUSH1 0x1F NOT SWAP1 DUP2 AND PUSH1 0x3F ADD AND DUP2 ADD SWAP1 DUP3 DUP3 GT DUP2 DUP4 LT OR ISZERO PUSH3 0xE9 JUMPI PUSH3 0xE9 PUSH3 0x79 JUMP JUMPDEST DUP2 PUSH1 0x40 MSTORE DUP4 DUP2 MSTORE PUSH1 0x20 SWAP3 POP DUP7 DUP4 DUP6 DUP9 ADD ADD GT ISZERO PUSH3 0x106 JUMPI PUSH1 0x0 DUP1 REVERT JUMPDEST PUSH1 0x0 SWAP2 POP JUMPDEST DUP4 DUP3 LT ISZERO PUSH3 0x12A JUMPI DUP6 DUP3 ADD DUP4 ADD MLOAD DUP2 DUP4 ADD DUP5 ADD MSTORE SWAP1 DUP3 ADD SWAP1 PUSH3 0x10B JUMP JUMPDEST PUSH1 0x0 SWAP4 DUP2 ADD SWAP1 SWAP3 ADD SWAP3 SWAP1 SWAP3 MSTORE SWAP5 SWAP4 POP POP POP POP JUMP JUMPDEST PUSH1 0x0 DUP1 PUSH1 0x0 DUP1 PUSH1 0x80 DUP6 DUP8 SUB SLT ISZERO PUSH3 0x155 JUMPI PUSH1 0x0 DUP1 REVERT JUMPDEST DUP5 MLOAD PUSH1 0x1 PUSH1 0x1 PUSH1 0x40 SHL SUB DUP1 DUP3 GT ISZERO PUSH3 0x16D JUMPI PUSH1 0x0 DUP1 REVERT JUMPDEST PUSH3 0x17B DUP9 DUP4 DUP10 ADD PUSH3 0x8F JUMP JUMPDEST SWAP6 POP PUSH1 0x20 DUP8 ADD MLOAD SWAP2 POP DUP1 DUP3 GT ISZERO PUSH3 0x192 JUMPI PUSH1 0x0 DUP1 REVERT JUMPDEST POP PUSH3 0x1A1 DUP8 DUP3 DUP9 ADD PUSH3 0x8F JUMP JUMPDEST PUSH1 0x40 DUP8 ADD MLOAD SWAP1 SWAP5 POP SWAP1 POP PUSH1 0x1 PUSH1 0x1 PUSH1 0xA0 SHL SUB DUP2 AND DUP2 EQ PUSH3 0x1C1 JUMPI PUSH1 0x0 DUP1 REVERT JUMPDEST PUSH1 0x60 SWAP6 SWAP1 SWAP6 ADD MLOAD SWAP4 SWAP7 SWAP3 SWAP6 POP POP POP JUMP JUMPDEST PUSH1 0x1 DUP2 DUP2 SHR SWAP1 DUP3 AND DUP1 PUSH3 0x1E6 JUMPI PUSH1 0x7F DUP3 AND SWAP2 POP JUMPDEST PUSH1 0x20 DUP3 LT DUP2 SUB PUSH3 0x207 JUMPI PUSH4 0x4E487B71 PUSH1 0xE0 SHL PUSH1 0x0 MSTORE PUSH1 0x22 PUSH1 0x4 MSTORE PUSH1 0x24 PUSH1 0x0 REVERT JUMPDEST POP SWAP2 SWAP1 POP JUMP JUMPDEST PUSH1 0x1F DUP3 GT ISZERO PUSH3 0x25B JUMPI PUSH1 0x0 DUP2 DUP2 MSTORE PUSH1 0x20 DUP2 KECCAK256 PUSH1 0x1F DUP6 ADD PUSH1 0x5 SHR DUP2 ADD PUSH1 0x20 DUP7 LT ISZERO PUSH3 0x236 JUMPI POP DUP1 JUMPDEST PUSH1 0x1F DUP6 ADD PUSH1 0x5 SHR DUP3 ADD SWAP2 POP JUMPDEST DUP2 DUP2 LT ISZERO PUSH3 0x257 JUMPI DUP3 DUP2 SSTORE PUSH1 0x1 ADD PUSH3 0x242 JUMP JUMPDEST POP POP POP JUMPDEST POP POP POP JUMP JUMPDEST DUP2 MLOAD PUSH1 0x1 PUSH1 0x1 PUSH1 0x40 SHL SUB DUP2 GT ISZERO PUSH3 0x27C JUMPI PUSH3 0x27C PUSH3 0x79 JUMP JUMPDEST PUSH3 0x294 DUP2 PUSH3 0x28D DUP5 SLOAD PUSH3 0x1D1 JUMP JUMPDEST DUP5 PUSH3 0x20D JUMP JUMPDEST PUSH1 0x20 DUP1 PUSH1 0x1F DUP4 GT PUSH1 0x1 DUP2 EQ PUSH3 0x2CC JUMPI PUSH1 0x0 DUP5 ISZERO PUSH3 0x2B3 JUMPI POP DUP6 DUP4 ADD MLOAD JUMPDEST PUSH1 0x0 NOT PUSH1 0x3 DUP7 SWAP1 SHL SHR NOT AND PUSH1 0x1 DUP6 SWAP1 SHL OR DUP6 SSTORE PUSH3 0x257 JUMP JUMPDEST PUSH1 0x0 DUP6 DUP2 MSTORE PUSH1 0x20 DUP2 KECCAK256 PUSH1 0x1F NOT DUP7 AND SWAP2 JUMPDEST DUP3 DUP2 LT ISZERO PUSH3 0x2FD JUMPI DUP9 DUP7 ADD MLOAD DUP3 SSTORE SWAP5 DUP5 ADD SWAP5 PUSH1 0x1 SWAP1 SWAP2 ADD SWAP1 DUP5 ADD PUSH3 0x2DC JUMP JUMPDEST POP DUP6 DUP3 LT ISZERO PUSH3 0x31C JUMPI DUP8 DUP6 ADD MLOAD PUSH1 0x0 NOT PUSH1 0x3 DUP9 SWAP1 SHL PUSH1 0xF8 AND SHR NOT AND DUP2 SSTORE JUMPDEST POP POP POP POP POP PUSH1 0x1 SWAP1 DUP2 SHL ADD SWAP1 SSTORE POP JUMP JUMPDEST DUP1 DUP3 ADD DUP1 DUP3 GT ISZERO PUSH3 0x34E JUMPI PUSH4 0x4E487B71 PUSH1 0xE0 SHL PUSH1 0x0 MSTORE PUSH1 0x11 PUSH1 0x4 MSTORE PUSH1 0x24 PUSH1 0x0 REVERT JUMPDEST SWAP3 SWAP2 POP POP JUMP JUMPDEST PUSH1 0x80 MLOAD PUSH2 0x8C9 PUSH3 0x377 PUSH1 0x0 CODECOPY PUSH1 0x0 DUP2 DUP2 PUSH2 0x107 ADD MSTORE PUSH2 0x472 ADD MSTORE PUSH2 0x8C9 PUSH1 0x0 RETURN INVALID PUSH1 0x80 PUSH1 0x40 MSTORE CALLVALUE DUP1 ISZERO PUSH2 0x10 JUMPI PUSH1 0x0 DUP1 REVERT JUMPDEST POP PUSH1 0x4 CALLDATASIZE LT PUSH2 0x88 JUMPI PUSH1 0x0 CALLDATALOAD PUSH1 0xE0 SHR DUP1 PUSH4 0x4BB278F3 GT PUSH2 0x5B JUMPI DUP1 PUSH4 0x4BB278F3 EQ PUSH2 0x156 JUMPI DUP1 PUSH4 0x7284E416 EQ PUSH2 0x160 JUMPI DUP1 PUSH4 0xA7EEA98B EQ PUSH2 0x168 JUMPI DUP1 PUSH4 0xC67EA7B5 EQ PUSH2 0x1A3 JUMPI PUSH1 0x0 DUP1 REVERT JUMPDEST DUP1 PUSH4 0x17CC915C EQ PUSH2 0x8D JUMPI DUP1 PUSH4 0x25DFF9D1 EQ PUSH2 0xC5 JUMPI DUP1 PUSH4 0x2B7AC3F3 EQ PUSH2 0x102 JUMPI DUP1 PUSH4 0x4A79D50C EQ PUSH2 0x141 JUMPI JUMPDEST PUSH1 0x0 DUP1 REVERT JUMPDEST PUSH2 0xB0 PUSH2 0x9B CALLDATASIZE PUSH1 0x4 PUSH2 0x5C8 JUMP JUMPDEST PUSH1 0x6 PUSH1 0x20 MSTORE PUSH1 0x0 SWAP1 DUP2 MSTORE PUSH1 0x40 SWAP1 KECCAK256 SLOAD PUSH1 0xFF AND DUP2 JUMP JUMPDEST PUSH1 0x40 MLOAD SWAP1 ISZERO ISZERO DUP2 MSTORE PUSH1 0x20 ADD JUMPDEST PUSH1 0x40 MLOAD DUP1 SWAP2 SUB SWAP1 RETURN JUMPDEST PUSH2 0xCD PUSH2 0x1B6 JUMP JUMPDEST PUSH1 0x40 MLOAD PUSH2 0xBC SWAP2 SWAP1 DUP2 MLOAD DUP2 MSTORE PUSH1 0x20 DUP1 DUP4 ADD MLOAD SWAP1 DUP3 ADD MSTORE PUSH1 0x40 DUP1 DUP4 ADD MLOAD SWAP1 DUP3 ADD MSTORE PUSH1 0x60 SWAP2 DUP3 ADD MLOAD ISZERO ISZERO SWAP2 DUP2 ADD SWAP2 SWAP1 SWAP2 MSTORE PUSH1 0x80 ADD SWAP1 JUMP JUMPDEST PUSH2 0x129 PUSH32 0x0 DUP2 JUMP JUMPDEST PUSH1 0x40 MLOAD PUSH1 0x1 PUSH1 0x1 PUSH1 0xA0 SHL SUB SWAP1 SWAP2 AND DUP2 MSTORE PUSH1 0x20 ADD PUSH2 0xBC JUMP JUMPDEST PUSH2 0x149 PUSH2 0x215 JUMP JUMPDEST PUSH1 0x40 MLOAD PUSH2 0xBC SWAP2 SWAP1 PUSH2 0x5E1 JUMP JUMPDEST PUSH2 0x15E PUSH2 0x2A3 JUMP JUMPDEST STOP JUMPDEST PUSH2 0x149 PUSH2 0x395 JUMP JUMPDEST PUSH1 0x2 SLOAD PUSH1 0x3 SLOAD PUSH1 0x4 SLOAD PUSH1 0x5 SLOAD PUSH2 0x181 SWAP4 SWAP3 SWAP2 SWAP1 PUSH1 0xFF AND DUP5 JUMP JUMPDEST PUSH1 0x40 DUP1 MLOAD SWAP5 DUP6 MSTORE PUSH1 0x20 DUP6 ADD SWAP4 SWAP1 SWAP4 MSTORE SWAP2 DUP4 ADD MSTORE ISZERO ISZERO PUSH1 0x60 DUP3 ADD MSTORE PUSH1 0x80 ADD PUSH2 0xBC JUMP JUMPDEST PUSH2 0x15E PUSH2 0x1B1 CALLDATASIZE PUSH1 0x4 PUSH2 0x6B6 JUMP JUMPDEST PUSH2 0x3A2 JUMP JUMPDEST PUSH2 0x1E3 PUSH1 0x40 MLOAD DUP1 PUSH1 0x80 ADD PUSH1 0x40 MSTORE DUP1 PUSH1 0x0 DUP2 MSTORE PUSH1 0x20 ADD PUSH1 0x0 DUP2 MSTORE PUSH1 0x20 ADD PUSH1 0x0 DUP2 MSTORE PUSH1 0x20 ADD PUSH1 0x0 ISZERO ISZERO DUP2 MSTORE POP SWAP1 JUMP JUMPDEST POP PUSH1 0x40 DUP1 MLOAD PUSH1 0x80 DUP2 ADD DUP3 MSTORE PUSH1 0x2 SLOAD DUP2 MSTORE PUSH1 0x3 SLOAD PUSH1 0x20 DUP3 ADD MSTORE PUSH1 0x4 SLOAD SWAP2 DUP2 ADD SWAP2 SWAP1 SWAP2 MSTORE PUSH1 0x5 SLOAD PUSH1 0xFF AND ISZERO ISZERO PUSH1 0x60 DUP3 ADD MSTORE SWAP1 JUMP JUMPDEST PUSH1 0x0 DUP1 SLOAD PUSH2 0x222 SWAP1 PUSH2 0x757 JUMP JUMPDEST DUP1 PUSH1 0x1F ADD PUSH1 0x20 DUP1 SWAP2 DIV MUL PUSH1 0x20 ADD PUSH1 0x40 MLOAD SWAP1 DUP2 ADD PUSH1 0x40 MSTORE DUP1 SWAP3 SWAP2 SWAP1 DUP2 DUP2 MSTORE PUSH1 0x20 ADD DUP3 DUP1 SLOAD PUSH2 0x24E SWAP1 PUSH2 0x757 JUMP JUMPDEST DUP1 ISZERO PUSH2 0x29B JUMPI DUP1 PUSH1 0x1F LT PUSH2 0x270 JUMPI PUSH2 0x100 DUP1 DUP4 SLOAD DIV MUL DUP4 MSTORE SWAP2 PUSH1 0x20 ADD SWAP2 PUSH2 0x29B JUMP JUMPDEST DUP3 ADD SWAP2 SWAP1 PUSH1 0x0 MSTORE PUSH1 0x20 PUSH1 0x0 KECCAK256 SWAP1 JUMPDEST DUP2 SLOAD DUP2 MSTORE SWAP1 PUSH1 0x1 ADD SWAP1 PUSH1 0x20 ADD DUP1 DUP4 GT PUSH2 0x27E JUMPI DUP3 SWAP1 SUB PUSH1 0x1F AND DUP3 ADD SWAP2 JUMPDEST POP POP POP POP POP DUP2 JUMP JUMPDEST PUSH1 0x4 SLOAD TIMESTAMP LT ISZERO PUSH2 0x2FA JUMPI PUSH1 0x40 MLOAD PUSH3 0x461BCD PUSH1 0xE5 SHL DUP2 MSTORE PUSH1 0x20 PUSH1 0x4 DUP3 ADD MSTORE PUSH1 0x17 PUSH1 0x24 DUP3 ADD MSTORE PUSH32 0x566F74696E6720706572696F64206E6F7420656E646564000000000000000000 PUSH1 0x44 DUP3 ADD MSTORE PUSH1 0x64 ADD JUMPDEST PUSH1 0x40 MLOAD DUP1 SWAP2 SUB SWAP1 REVERT JUMPDEST PUSH1 0x5 SLOAD PUSH1 0xFF AND ISZERO PUSH2 0x341 JUMPI PUSH1 0x40 MLOAD PUSH3 0x461BCD PUSH1 0xE5 SHL DUP2 MSTORE PUSH1 0x20 PUSH1 0x4 DUP3 ADD MSTORE PUSH1 0x11 PUSH1 0x24 DUP3 ADD MSTORE PUSH17 0x105B1C9958591E48199A5B985B1A5E9959 PUSH1 0x7A SHL PUSH1 0x44 DUP3 ADD MSTORE PUSH1 0x64 ADD PUSH2 0x2F1 JUMP JUMPDEST PUSH1 0x5 DUP1 SLOAD PUSH1 0xFF NOT AND PUSH1 0x1 OR SWAP1 SSTORE PUSH1 0x2 SLOAD PUSH1 0x3 SLOAD PUSH1 0x40 MLOAD PUSH32 0x7701DBA108504636E1C3EDEAE33D8C8894D878B94ACE52C051E49CB5AEB0FE05 SWAP3 PUSH2 0x38B SWAP3 SWAP1 DUP3 MSTORE PUSH1 0x20 DUP3 ADD MSTORE PUSH1 0x40 ADD SWAP1 JUMP JUMPDEST PUSH1 0x40 MLOAD DUP1 SWAP2 SUB SWAP1 LOG1 JUMP JUMPDEST PUSH1 0x1 DUP1 SLOAD PUSH2 0x222 SWAP1 PUSH2 0x757 JUMP JUMPDEST PUSH1 0x4 SLOAD TIMESTAMP LT PUSH2 0x3F3 JUMPI PUSH1 0x40 MLOAD PUSH3 0x461BCD PUSH1 0xE5 SHL DUP2 MSTORE PUSH1 0x20 PUSH1 0x4 DUP3 ADD MSTORE PUSH1 0x17 PUSH1 0x24 DUP3 ADD MSTORE PUSH32 0x566F74696E6720706572696F642068617320656E646564000000000000000000 PUSH1 0x44 DUP3 ADD MSTORE PUSH1 0x64 ADD PUSH2 0x2F1 JUMP JUMPDEST PUSH1 0x0 DUP2 DUP2 MSTORE PUSH1 0x6 PUSH1 0x20 MSTORE PUSH1 0x40 SWAP1 KECCAK256 SLOAD PUSH1 0xFF AND ISZERO PUSH2 0x446 JUMPI PUSH1 0x40 MLOAD PUSH3 0x461BCD PUSH1 0xE5 SHL DUP2 MSTORE PUSH1 0x20 PUSH1 0x4 DUP3 ADD MSTORE PUSH1 0x11 PUSH1 0x24 DUP3 ADD MSTORE PUSH17 0x159BDD1948185B1C9958591E4818D85CDD PUSH1 0x7A SHL PUSH1 0x44 DUP3 ADD MSTORE PUSH1 0x64 ADD PUSH2 0x2F1 JUMP JUMPDEST PUSH1 0x40 DUP1 MLOAD DUP1 DUP3 ADD DUP3 MSTORE DUP4 DUP2 MSTORE PUSH1 0x20 DUP2 ADD DUP4 SWAP1 MSTORE SWAP1 MLOAD PUSH4 0x7AE4EB4F PUSH1 0xE1 SHL DUP2 MSTORE PUSH1 0x0 SWAP2 PUSH1 0x1 PUSH1 0x1 PUSH1 0xA0 SHL SUB PUSH32 0x0 AND SWAP2 PUSH4 0xF5C9D69E SWAP2 PUSH2 0x4AC SWAP2 DUP11 SWAP2 DUP11 SWAP2 DUP11 SWAP2 SWAP1 PUSH1 0x4 ADD PUSH2 0x7BA JUMP JUMPDEST PUSH1 0x20 PUSH1 0x40 MLOAD DUP1 DUP4 SUB DUP2 DUP7 GAS STATICCALL ISZERO DUP1 ISZERO PUSH2 0x4C9 JUMPI RETURNDATASIZE PUSH1 0x0 DUP1 RETURNDATACOPY RETURNDATASIZE PUSH1 0x0 REVERT JUMPDEST POP POP POP POP PUSH1 0x40 MLOAD RETURNDATASIZE PUSH1 0x1F NOT PUSH1 0x1F DUP3 ADD AND DUP3 ADD DUP1 PUSH1 0x40 MSTORE POP DUP2 ADD SWAP1 PUSH2 0x4ED SWAP2 SWAP1 PUSH2 0x821 JUMP JUMPDEST SWAP1 POP DUP1 PUSH2 0x52C JUMPI PUSH1 0x40 MLOAD PUSH3 0x461BCD PUSH1 0xE5 SHL DUP2 MSTORE PUSH1 0x20 PUSH1 0x4 DUP3 ADD MSTORE PUSH1 0xD PUSH1 0x24 DUP3 ADD MSTORE PUSH13 0x24B73B30B634B210383937B7B3 PUSH1 0x99 SHL PUSH1 0x44 DUP3 ADD MSTORE PUSH1 0x64 ADD PUSH2 0x2F1 JUMP JUMPDEST PUSH1 0x0 DUP3 DUP2 MSTORE PUSH1 0x6 PUSH1 0x20 MSTORE PUSH1 0x40 SWAP1 KECCAK256 DUP1 SLOAD PUSH1 0xFF NOT AND PUSH1 0x1 OR SWAP1 SSTORE PUSH2 0x550 PUSH1 0x2 DUP5 PUSH2 0x84A JUMP JUMPDEST PUSH1 0x0 SUB PUSH2 0x571 JUMPI PUSH1 0x2 DUP1 SLOAD SWAP1 PUSH1 0x0 PUSH2 0x567 DUP4 PUSH2 0x86C JUMP JUMPDEST SWAP2 SWAP1 POP SSTORE POP PUSH2 0x587 JUMP JUMPDEST PUSH1 0x3 DUP1 SLOAD SWAP1 PUSH1 0x0 PUSH2 0x581 DUP4 PUSH2 0x86C JUMP JUMPDEST SWAP2 SWAP1 POP SSTORE POP JUMPDEST PUSH1 0x40 DUP1 MLOAD DUP4 DUP2 MSTORE PUSH1 0x20 DUP2 ADD DUP6 SWAP1 MSTORE PUSH32 0x98FEB77D0A18CB15F50D444EB78EA1C0E7461C4C7C44C9DF2A863F4AF4ADE56A SWAP2 ADD PUSH1 0x40 MLOAD DUP1 SWAP2 SUB SWAP1 LOG1 POP POP POP POP POP POP JUMP JUMPDEST PUSH1 0x0 PUSH1 0x20 DUP3 DUP5 SUB SLT ISZERO PUSH2 0x5DA JUMPI PUSH1 0x0 DUP1 REVERT JUMPDEST POP CALLDATALOAD SWAP2 SWAP1 POP JUMP JUMPDEST PUSH1 0x0 PUSH1 0x20 DUP1 DUP4 MSTORE DUP4 MLOAD DUP1 DUP3 DUP6 ADD MSTORE PUSH1 0x0 JUMPDEST DUP2 DUP2 LT ISZERO PUSH2 0x60E JUMPI DUP6 DUP2 ADD DUP4 ADD MLOAD DUP6 DUP3 ADD PUSH1 0x40 ADD MSTORE DUP3 ADD PUSH2 0x5F2 JUMP JUMPDEST POP PUSH1 0x0 PUSH1 0x40 DUP3 DUP7 ADD ADD MSTORE PUSH1 0x40 PUSH1 0x1F NOT PUSH1 0x1F DUP4 ADD AND DUP6 ADD ADD SWAP3 POP POP POP SWAP3 SWAP2 POP POP JUMP JUMPDEST PUSH1 0x40 DUP1 MLOAD SWAP1 DUP2 ADD PUSH8 0xFFFFFFFFFFFFFFFF DUP2 GT DUP3 DUP3 LT OR ISZERO PUSH2 0x660 JUMPI PUSH4 0x4E487B71 PUSH1 0xE0 SHL PUSH1 0x0 MSTORE PUSH1 0x41 PUSH1 0x4 MSTORE PUSH1 0x24 PUSH1 0x0 REVERT JUMPDEST PUSH1 0x40 MSTORE SWAP1 JUMP JUMPDEST PUSH1 0x0 DUP3 PUSH1 0x1F DUP4 ADD SLT PUSH2 0x677 JUMPI PUSH1 0x0 DUP1 REVERT JUMPDEST PUSH2 0x67F PUSH2 0x62F JUMP JUMPDEST DUP1 PUSH1 0x40 DUP5 ADD DUP6 DUP2 GT ISZERO PUSH2 0x691 JUMPI PUSH1 0x0 DUP1 REVERT JUMPDEST DUP5 JUMPDEST DUP2 DUP2 LT ISZERO PUSH2 0x6AB JUMPI DUP1 CALLDATALOAD DUP5 MSTORE PUSH1 0x20 SWAP4 DUP5 ADD SWAP4 ADD PUSH2 0x693 JUMP JUMPDEST POP SWAP1 SWAP6 SWAP5 POP POP POP POP POP JUMP JUMPDEST PUSH1 0x0 DUP1 PUSH1 0x0 DUP1 PUSH1 0x0 PUSH2 0x140 DUP7 DUP9 SUB SLT ISZERO PUSH2 0x6CF JUMPI PUSH1 0x0 DUP1 REVERT JUMPDEST PUSH2 0x6D9 DUP8 DUP8 PUSH2 0x666 JUMP JUMPDEST SWAP5 POP PUSH1 0x40 DUP8 PUSH1 0x5F DUP9 ADD SLT PUSH2 0x6EC JUMPI PUSH1 0x0 DUP1 REVERT JUMPDEST PUSH2 0x6F4 PUSH2 0x62F JUMP JUMPDEST DUP1 PUSH1 0xC0 DUP10 ADD DUP11 DUP2 GT ISZERO PUSH2 0x706 JUMPI PUSH1 0x0 DUP1 REVERT JUMPDEST DUP4 DUP11 ADD JUMPDEST DUP2 DUP2 LT ISZERO PUSH2 0x72B JUMPI PUSH2 0x71C DUP13 DUP3 PUSH2 0x666 JUMP JUMPDEST DUP5 MSTORE PUSH1 0x20 SWAP1 SWAP4 ADD SWAP3 DUP5 ADD PUSH2 0x70A JUMP JUMPDEST POP DUP2 SWAP8 POP PUSH2 0x739 DUP12 DUP3 PUSH2 0x666 JUMP JUMPDEST SWAP9 SWAP12 SWAP8 SWAP11 POP SWAP8 SWAP9 PUSH2 0x100 DUP2 ADD CALLDATALOAD SWAP9 POP PUSH2 0x120 ADD CALLDATALOAD SWAP7 SWAP6 POP POP POP POP POP POP JUMP JUMPDEST PUSH1 0x1 DUP2 DUP2 SHR SWAP1 DUP3 AND DUP1 PUSH2 0x76B JUMPI PUSH1 0x7F DUP3 AND SWAP2 POP JUMPDEST PUSH1 0x20 DUP3 LT DUP2 SUB PUSH2 0x78B JUMPI PUSH4 0x4E487B71 PUSH1 0xE0 SHL PUSH1 0x0 MSTORE PUSH1 0x22 PUSH1 0x4 MSTORE PUSH1 0x24 PUSH1 0x0 REVERT JUMPDEST POP SWAP2 SWAP1 POP JUMP JUMPDEST DUP1 PUSH1 0x0 JUMPDEST PUSH1 0x2 DUP2 LT ISZERO PUSH2 0x7B4 JUMPI DUP2 MLOAD DUP5 MSTORE PUSH1 0x20 SWAP4 DUP5 ADD SWAP4 SWAP1 SWAP2 ADD SWAP1 PUSH1 0x1 ADD PUSH2 0x795 JUMP JUMPDEST POP POP POP POP JUMP JUMPDEST PUSH2 0x140 DUP2 ADD PUSH2 0x7C9 DUP3 DUP8 PUSH2 0x791 JUMP JUMPDEST PUSH1 0x40 DUP1 DUP4 ADD DUP7 PUSH1 0x0 JUMPDEST PUSH1 0x2 DUP2 LT ISZERO PUSH2 0x7F9 JUMPI PUSH2 0x7E6 DUP4 DUP4 MLOAD PUSH2 0x791 JUMP JUMPDEST SWAP2 DUP4 ADD SWAP2 PUSH1 0x20 SWAP2 SWAP1 SWAP2 ADD SWAP1 PUSH1 0x1 ADD PUSH2 0x7D2 JUMP JUMPDEST POP POP POP POP PUSH2 0x80A PUSH1 0xC0 DUP4 ADD DUP6 PUSH2 0x791 JUMP JUMPDEST PUSH2 0x818 PUSH2 0x100 DUP4 ADD DUP5 PUSH2 0x791 JUMP JUMPDEST SWAP6 SWAP5 POP POP POP POP POP JUMP JUMPDEST PUSH1 0x0 PUSH1 0x20 DUP3 DUP5 SUB SLT ISZERO PUSH2 0x833 JUMPI PUSH1 0x0 DUP1 REVERT JUMPDEST DUP2 MLOAD DUP1 ISZERO ISZERO DUP2 EQ PUSH2 0x843 JUMPI PUSH1 0x0 DUP1 REVERT JUMPDEST SWAP4 SWAP3 POP POP POP JUMP JUMPDEST PUSH1 0x0 DUP3 PUSH2 0x867 JUMPI PUSH4 0x4E487B71 PUSH1 0xE0 SHL PUSH1 0x0 MSTORE PUSH1 0x12 PUSH1 0x4 MSTORE PUSH1 0x24 PUSH1 0x0 REVERT JUMPDEST POP MOD SWAP1 JUMP JUMPDEST PUSH1 0x0 PUSH1 0x1 DUP3 ADD PUSH2 0x88C JUMPI PUSH4 0x4E487B71 PUSH1 0xE0 SHL PUSH1 0x0 MSTORE PUSH1 0x11 PUSH1 0x4 MSTORE PUSH1 0x24 PUSH1 0x0 REVERT JUMPDEST POP PUSH1 0x1 ADD SWAP1 JUMP INVALID LOG2 PUSH5 0x6970667358 0x22 SLT KECCAK256 0xB8 RETURNDATASIZE PUSH29 0x351EB3F599ABB3FD600BED4427F2351FC5FA7F5B9FB85E3BB079C7BDA0 PUSH5 0x736F6C6343 STOP ADDMOD SGT STOP CALLER LOG2 PUSH5 0x6970667358 0x22 SLT KECCAK256 0xC0 PUSH11 0xAB6E04166B1ABF3B45A4E3 0x1F PC CALLER 0xEE DUP5 0xF GAS BALANCE CALLER 0xE8 ADD EXP PUSH23 0xC99DFA622CFD64736F6C63430008130033000000000000 "},"methodIdentifiers":{"VOTING_PERIOD()":"b1610d7e","createProposal(string,string)":"65e481e2","getProposalCount()":"c08cc02d","getProposals()":"62564c48","proposals(uint256)":"013cf08b","verifier()":"2b7ac3f3"}}}}}