{
  "_format": "hh-sol-artifact-1",
  "contractName": "Proposal",
  "sourceName": "contracts/Proposal.sol",
  "abi": [
    {
      "inputs": [
        {
          "internalType": "string",
          "name": "_title",
          "type": "string"
        },
        {
          "internalType": "string",
          "name": "_description",
          "type": "string"
        },
        {
          "internalType": "address",
          "name": "_verifier",
          "type": "address"
        },
        {
          "internalType": "uint256",
          "name": "_votingPeriod",
          "type": "uint256"
        }
      ],
      "stateMutability": "nonpayable",
      "type": "constructor"
    },
    {
      "anonymous": false,
      "inputs": [
        {
          "indexed": false,
          "internalType": "uint256",
          "name": "forVotes",
          "type": "uint256"
        },
        {
          "indexed": false,
          "internalType": "uint256",
          "name": "againstVotes",
          "type": "uint256"
        }
      ],
      "name": "ProposalFinalized",
      "type": "event"
    },
    {
      "anonymous": false,
      "inputs": [
        {
          "indexed": false,
          "internalType": "bytes32",
          "name": "nullifierHash",
          "type": "bytes32"
        },
        {
          "indexed": false,
          "internalType": "bytes32",
          "name": "voteHash",
          "type": "bytes32"
        }
      ],
      "name": "VoteCast",
      "type": "event"
    },
    {
      "inputs": [
        {
          "internalType": "uint256[2]",
          "name": "a",
          "type": "uint256[2]"
        },
        {
          "internalType": "uint256[2][2]",
          "name": "b",
          "type": "uint256[2][2]"
        },
        {
          "internalType": "uint256[2]",
          "name": "c",
          "type": "uint256[2]"
        },
        {
          "internalType": "bytes32",
          "name": "voteHash",
          "type": "bytes32"
        },
        {
          "internalType": "bytes32",
          "name": "nullifierHash",
          "type": "bytes32"
        }
      ],
      "name": "castVote",
      "outputs": [],
      "stateMutability": "nonpayable",
      "type": "function"
    },
    {
      "inputs": [],
      "name": "description",
      "outputs": [
        {
          "internalType": "string",
          "name": "",
          "type": "string"
        }
      ],
      "stateMutability": "view",
      "type": "function"
    },
    {
      "inputs": [],
      "name": "finalize",
      "outputs": [],
      "stateMutability": "nonpayable",
      "type": "function"
    },
    {
      "inputs": [],
      "name": "getVoteInfo",
      "outputs": [
        {
          "components": [
            {
              "internalType": "uint256",
              "name": "forVotes",
              "type": "uint256"
            },
            {
              "internalType": "uint256",
              "name": "againstVotes",
              "type": "uint256"
            },
            {
              "internalType": "uint256",
              "name": "endTime",
              "type": "uint256"
            },
            {
              "internalType": "bool",
              "name": "isFinalized",
              "type": "bool"
            }
          ],
          "internalType": "struct Proposal.VoteInfo",
          "name": "",
          "type": "tuple"
        }
      ],
      "stateMutability": "view",
      "type": "function"
    },
    {
      "inputs": [
        {
          "internalType": "bytes32",
          "name": "",
          "type": "bytes32"
        }
      ],
      "name": "nullifierHashes",
      "outputs": [
        {
          "internalType": "bool",
          "name": "",
          "type": "bool"
        }
      ],
      "stateMutability": "view",
      "type": "function"
    },
    {
      "inputs": [],
      "name": "title",
      "outputs": [
        {
          "internalType": "string",
          "name": "",
          "type": "string"
        }
      ],
      "stateMutability": "view",
      "type": "function"
    },
    {
      "inputs": [],
      "name": "verifier",
      "outputs": [
        {
          "internalType": "address",
          "name": "",
          "type": "address"
        }
      ],
      "stateMutability": "view",
      "type": "function"
    },
    {
      "inputs": [],
      "name": "voteInfo",
      "outputs": [
        {
          "internalType": "uint256",
          "name": "forVotes",
          "type": "uint256"
        },
        {
          "internalType": "uint256",
          "name": "againstVotes",
          "type": "uint256"
        },
        {
          "internalType": "uint256",
          "name": "endTime",
          "type": "uint256"
        },
        {
          "internalType": "bool",
          "name": "isFinalized",
          "type": "bool"
        }
      ],
      "stateMutability": "view",
      "type": "function"
    }
  ],
  "bytecode": "0x60a06040523480156200001157600080fd5b5060405162000c4038038062000c4083398101604081905262000034916200013e565b600062000042858262000260565b50600162000051848262000260565b506001600160a01b0382166080526200006b81426200032c565b600455506200035492505050565b634e487b7160e01b600052604160045260246000fd5b600082601f830112620000a157600080fd5b81516001600160401b0380821115620000be57620000be62000079565b604051601f8301601f19908116603f01168101908282118183101715620000e957620000e962000079565b816040528381526020925086838588010111156200010657600080fd5b600091505b838210156200012a57858201830151818301840152908201906200010b565b600093810190920192909252949350505050565b600080600080608085870312156200015557600080fd5b84516001600160401b03808211156200016d57600080fd5b6200017b888389016200008f565b955060208701519150808211156200019257600080fd5b50620001a1878288016200008f565b604087015190945090506001600160a01b0381168114620001c157600080fd5b6060959095015193969295505050565b600181811c90821680620001e657607f821691505b6020821081036200020757634e487b7160e01b600052602260045260246000fd5b50919050565b601f8211156200025b57600081815260208120601f850160051c81016020861015620002365750805b601f850160051c820191505b81811015620002575782815560010162000242565b5050505b505050565b81516001600160401b038111156200027c576200027c62000079565b62000294816200028d8454620001d1565b846200020d565b602080601f831160018114620002cc5760008415620002b35750858301515b600019600386901b1c1916600185901b17855562000257565b600085815260208120601f198616915b82811015620002fd57888601518255948401946001909101908401620002dc565b50858210156200031c5787850151600019600388901b60f8161c191681555b5050505050600190811b01905550565b808201808211156200034e57634e487b7160e01b600052601160045260246000fd5b92915050565b6080516108c96200037760003960008181610107015261047201526108c96000f3fe608060405234801561001057600080fd5b50600436106100885760003560e01c80634bb278f31161005b5780634bb278f3146101565780637284e41614610160578063a7eea98b14610168578063c67ea7b5146101a357600080fd5b806317cc915c1461008d57806325dff9d1146100c55780632b7ac3f3146101025780634a79d50c14610141575b600080fd5b6100b061009b3660046105c8565b60066020526000908152604090205460ff1681565b60405190151581526020015b60405180910390f35b6100cd6101b6565b6040516100bc919081518152602080830151908201526040808301519082015260609182015115159181019190915260800190565b6101297f000000000000000000000000000000000000000000000000000000000000000081565b6040516001600160a01b0390911681526020016100bc565b610149610215565b6040516100bc91906105e1565b61015e6102a3565b005b610149610395565b6002546003546004546005546101819392919060ff1684565b60408051948552602085019390935291830152151560608201526080016100bc565b61015e6101b13660046106b6565b6103a2565b6101e360405180608001604052806000815260200160008152602001600081526020016000151581525090565b5060408051608081018252600254815260035460208201526004549181019190915260055460ff161515606082015290565b6000805461022290610757565b80601f016020809104026020016040519081016040528092919081815260200182805461024e90610757565b801561029b5780601f106102705761010080835404028352916020019161029b565b820191906000526020600020905b81548152906001019060200180831161027e57829003601f168201915b505050505081565b6004544210156102fa5760405162461bcd60e51b815260206004820152601760248201527f566f74696e6720706572696f64206e6f7420656e64656400000000000000000060448201526064015b60405180910390fd5b60055460ff16156103415760405162461bcd60e51b8152602060048201526011602482015270105b1c9958591e48199a5b985b1a5e9959607a1b60448201526064016102f1565b6005805460ff191660011790556002546003546040517f7701dba108504636e1c3edeae33d8c8894d878b94ace52c051e49cb5aeb0fe059261038b92908252602082015260400190565b60405180910390a1565b6001805461022290610757565b60045442106103f35760405162461bcd60e51b815260206004820152601760248201527f566f74696e6720706572696f642068617320656e64656400000000000000000060448201526064016102f1565b60008181526006602052604090205460ff16156104465760405162461bcd60e51b8152602060048201526011602482015270159bdd1948185b1c9958591e4818d85cdd607a1b60448201526064016102f1565b604080518082018252838152602081018390529051637ae4eb4f60e11b81526000916001600160a01b037f0000000000000000000000000000000000000000000000000000000000000000169163f5c9d69e916104ac918a918a918a91906004016107ba565b602060405180830381865afa1580156104c9573d6000803e3d6000fd5b505050506040513d601f19601f820116820180604052508101906104ed9190610821565b90508061052c5760405162461bcd60e51b815260206004820152600d60248201526c24b73b30b634b210383937b7b360991b60448201526064016102f1565b6000828152600660205260409020805460ff1916600117905561055060028461084a565b60000361057157600280549060006105678361086c565b9190505550610587565b600380549060006105818361086c565b91905055505b60408051838152602081018590527f98feb77d0a18cb15f50d444eb78ea1c0e7461c4c7c44c9df2a863f4af4ade56a910160405180910390a1505050505050565b6000602082840312156105da57600080fd5b5035919050565b600060208083528351808285015260005b8181101561060e578581018301518582016040015282016105f2565b506000604082860101526040601f19601f8301168501019250505092915050565b6040805190810167ffffffffffffffff8111828210171561066057634e487b7160e01b600052604160045260246000fd5b60405290565b600082601f83011261067757600080fd5b61067f61062f565b80604084018581111561069157600080fd5b845b818110156106ab578035845260209384019301610693565b509095945050505050565b600080600080600061014086880312156106cf57600080fd5b6106d98787610666565b9450604087605f8801126106ec57600080fd5b6106f461062f565b8060c089018a81111561070657600080fd5b838a015b8181101561072b5761071c8c82610666565b8452602090930192840161070a565b508197506107398b82610666565b989b979a509798610100810135985061012001359695505050505050565b600181811c9082168061076b57607f821691505b60208210810361078b57634e487b7160e01b600052602260045260246000fd5b50919050565b8060005b60028110156107b4578151845260209384019390910190600101610795565b50505050565b61014081016107c98287610791565b60408083018660005b60028110156107f9576107e6838351610791565b91830191602091909101906001016107d2565b5050505061080a60c0830185610791565b610818610100830184610791565b95945050505050565b60006020828403121561083357600080fd5b8151801515811461084357600080fd5b9392505050565b60008261086757634e487b7160e01b600052601260045260246000fd5b500690565b60006001820161088c57634e487b7160e01b600052601160045260246000fd5b506001019056fea2646970667358221220b83d7c351eb3f599abb3fd600bed4427f2351fc5fa7f5b9fb85e3bb079c7bda064736f6c63430008130033",
  "linkReferences": {},
  "deployedLinkReferences": {}
}